:0300000002004EAD
:10004E0078FFE4F6D8FD907FA1E404F090200090B4
:10005E0020007F007E08E4F0A3DFFCDEFA75814805
:03006E000200ACE1
:03004300020100B7
:1014DB007400F58690FDA57C05A3E582458370F924
:0114EB0022DE
:0514EC0074EF52912293
:1014F100907FD6E04480F043870100000000002285
:100DFD001201100100000040BF0AE90302000000CB
:100E0D00000109022E00010100C032090400000496
:100E1D00FF000000070581024000000705010240A8
:100E2D000000070582024000000705020240000095
:100E3D0004030904100344006500560061005300CB
:100E4D0079007300380344006500560061005300BB
:100E5D007900730020002D0020004900320043006E
:100E6D002B0049002F004F00200049006E00740038
:0E0E7D00650072006600610063006500000001
:1017330012177D120E8B2003033001031212F712CE
:0417430000F180F23F
:1011F20049276D206120557362493263496F20622D
:101202006F61726420616E642049276D20616C6990
:10121200766521202049276D2020616161616C6C17
:101222006C6C696969696976767676656565656506
:051232002121210A004A
:10106400D202E4907F93F0907F94F0907F95740780
:10107400F0E4907F9CF0907F9DF0907F9E7408F048
:10108400E4907F96F0907F97F0907F987408F01228
:10109400148CC20A1216BD907FB27400F0A374F1CE
:1010A400F0907FAFE04402F0E04404F07BFF7A115B
:0710B40079F2E4FD02166968
:0E00F1003006031216F0E53F600312143222AF
:0307FC007F012258
:030FFA007F012252
:09178D00C106C105013F00C104C1
:07000300EF25E02443F82281
:10148C00C2A9C28C5389F0438901758AE0758CB16D
:10149C00E4FF120003E4F608F674402FF876010F0F
:0714AC00BF03EFD28CD2A9AF
:0114B3002216
:10176D0074402FF8E6B4020576017F01227F002236
:10174700C28C120003A60408A60574402FF8E4F61D
:03175700D28C220F
:03000B00021237A7
:0D123700C0E0C0D075D000C000C004C007EA
:10124400C28C758AE0758CB1D28C7F031F74402FD9
:10125400F8E6701612000308E616187001161486D4
:0D126400044C700674402FF87602EF70DF26
:0B127100D007D004D000D0D0D0E03275
:10168900300402B20A907F9BE054F7F53E200A032A
:09169900433E08907F98E53EF005
:0116A2002225
:1016F000E53F70127D08FC7F01121747753F01D24C
:071700000A121689C206223D
:101432007F0112176DEF6024E53F24FE60110470F6
:10144200137D087C007F01121747753F028008E474
:0D145200F53F8003E4F53FC20A121689221F
:10111200907FECE0F45480FFC4540FFFE054072F9B
:1011220025E024B4F582E4347FF58322907FB4E095
:101132004401F022E4907F00F0A3F0907FB57402A6
:10114200F022E0FCA3E0FDEC907FD4F0ED907FD59F
:0C115200F022E4F525F524F523F5222217
:100E8B00121154C201C202C200C203902100740DA0
:100E9B00F0A374FDF0A3740EF0A3740FF0A3740E03
:100EAB00F0A3743DF0121064D2E843D820907FAFCA
:100EBB00E0440154F7F0907FAEE0441DF0D2AF2038
:100ECB00033F2003057F011211AA1211547F407EAC
:100EDB00927D047C00AB25AA24A923A822C312036C
:100EEB000450DC2003D9AF25AE24AD23AC22E47B28
:100EFB0001FAF9F81202F78F258E248D238C2280AC
:040F0B00CC538EF83D
:010F0F0022BF
:1012F700300307D20612132EC203300129C201128E
:1013070007FCEF6021C204C20A1216891214F120E9
:101317000207907FD6E020E7F31216A3120FFAD246
:071327000A121689D204220C
:10132E00907FE8E0546024E0602524E0601924E01A
:10133E00601D24607016907FE8E030E70512053CD2
:10134E00800D120C468008121797800312112E90F2
:07135E007FB4E04402F0221D
:10053C00907FE9E07002C12424F87002C12124FEEE
:10054C007002C11E24046002C150120FFDEF600244
:10055C00C153907FEBE024FE600F14601224026004
:10056C0002C11B90210002114490210202114490FF
:10057C007FEAE0FF1213CFEF4E7002C1188E228F6C
:10058C00238F828E83E493F524907FEEE0FFE524A5
:10059C00D39F4003E0F524E5246065E4FFFEE524E9
:1005AC00C394405004AD2480027D40C3EF9DEE9473
:1005BC0000501FE5232FF582E5223EF583E0FD7404
:1005CC00002FF582E4347FF583EDF00FBF00010EB0
:1005DC0080CCE524C394405004AF2480027F40902B
:1005EC007FB5EFF0E524C394405004AF2480027F24
:1005FC0040C3E5249FF524907FB4E030E29980F766
:10060C00E4907FB5F0907FB47402F02202112E02B8
:10061C00112E0217A80217A11217B6EF6029907FAE
:10062C00E8E0247F600A14600A2402701402113678
:10063C00021136121112E05401907F00F0E4021105
:07064C003B02112E12112EDA
:010653002284
:100C4600907FE9E014601224FE605524FA600724C0
:100C5600FE707C0207F10200361217B9EF6073903E
:100C66007FE8E024FE601124027067907FEAE0B41A
:100C76000103C2022202112E907FEAE0701F1211B8
:100C860012E4F0907FECE05480FF131313541FFF1F
:100C9600E054072F907FD7F0E04420F02202112E77
:100CA6001217BCEF602C907FE8E024FE601124024E
:100CB6007020907FEAE0B40103D2022202112E9046
:100CC6007FEAE070071211127401F02202112E124F
:030CD600112E22BA
:0A179700120758EF700312112E2202
:0300330002004682
:0400460053D8EF326A
:1011AA00907FD6E04408F0E054FBF0E04408F0EF0A
:1011BA006004E04402F07FDC7E05121707907F92FC
:1011CA00E030E3077FDC7E05121707907FAB74FFE0
:1011DA00F0907FA9F0907FAAF05391EF907FD6E02C
:0811EA0054F7F0E04404F02288
:101707008E268F27E5271527AE26700215264E60F1
:07171700051214DB80EE2235
:1016A300907FD6E030E712E04401F07F147E001211
:0A16B3001707907FD6E054FEF022E6
:0213CF00A9076C
:1013D100902104E0FEA3E0FF8F828E837401936469
:1013E100037018AD0119ED7001228F828E83E49391
:0F13F1007C002FFDEC3EFEAF0580DD7E007F000F
:0114000022C9
:10013F004572726F72202D2056525F476574203DB5
:10014F002064656661756C742063617365202D2072
:10015F003078000A004572726F72202D2056525F60
:10016F00536574203D2064656661756C742063610E
:10017F007365202D2030780056525F476574496FA4
:10018F00436F6E6669672829202D203078005652FC
:10019F005F536574496F436F6E6669672829202D19
:1001AF002030780056525F47657452656164496F1D
:1001BF00506F7274732829202D20307830300056FC
:1001CF00525F5365745772697465496F506F7274DB
:1001DF00732829207B3078007D207B3078002C20FD
:1001EF003078007D0A0020496E76616C6964207753
:1001FF00436F756E742076616C75652C2000207BC3
:10020F005245414420444154417D0020646566615C
:10021F00756C742063617365206572726F72002054
:10022F00496E76616C69642064617461206C656EDF
:10023F00677468732C2077493263436F756E743D12
:10024F0000202C206263203D0056525F5365745787
:10025F00726974654932433A0056525F476574526A
:10026F006561644932433A00204932435F54524139
:10027F004E535F4E4F414452203078002049324355
:10028F005F5452414E535F38414452203078002022
:10029F00307800204932435F5452414E535F31361C
:1002AF0041445220307800204932435F5452414E2E
:0D02BF00535F4E5320307800207B007D00FF
:100F1000907FEAE0F511A3E0F50C7E7F7FEC7DEC9D
:100F20007C7F05828C83E0FBA3E0F50DEBF50E7E64
:100F30007F7FEE7C7F7DEE8D828C83E0FBA3E022C1
:100F4000907F00F07BFF7A0179627D0122E0F50855
:100F50005509F50B420AE508F44509F50B520A223A
:100F60007BFF7A02791A7D0122E0907F00F0907F6A
:100F7000B57401F0FF22AA12A9137B0122AA14A9B9
:0B0F8000157B01227D01AF10AE0F2297
:030FFD007F002250
:0D003600D204907FEAE0902107F07F0122C4
:0717A100902107120F6922DD
:0B07F100907FEAE0902106F07F0122DB
:0717A800902106120F6922D7
:0317B6007F01228E
:0317B9007F01228B
:0317BC007F012288
:10075800E4F522907FE8E030E74AA3E0240F601533
:1007680014601914601D24F46020240F70251210E1
:10077800008F22E1DF1210BB8F22805B1206548F9C
:100788002280541217BF8F22804D120CD98F22C29B
:100798000680447BFF7A01793F1207E2120F441268
:1007A80016698033907FE9E0240F600E14601224EC
:1007B800027015120F8B8F22801D120ACE8F228095
:1007C800161208008F22800F7BFF7A0179641207C6
:0907D800E2120F44121669AF226F
:1007E100227D01121669907FE9E0FF7D0102127CF2
:101000007BFF7A0179877D011216697D017FFF12CE
:10101000127C907F0374FFF0907F9EE054F0FFC439
:10102000540FF4F5237D01FF12127C907F02E5231B
:10103000F0907F9DE0F4FF7D0112127C907F9DE097
:10104000F4907F01F0907F9CE0F4FF7D0112127C10
:10105000907F9CE0F4120F40121669907FB57404E3
:03106000F07F011D
:01106300226A
:100F8B007BFF7A01799D7D01121669907FB4E02079
:100F9B00E3F9907FC5E0F523907EC3120FF3907EAB
:100FAB00C2120FF3907EC1E0FF7D0112127C907E86
:100FBB00C0E0FF7D0112127C120F44121669907E65
:100FCB00C0E0F4907F9CF0907EC1E0F4907F9DF0A8
:100FDB00907EC2E0F4FFC454F0FF4307085307F8B8
:070FEB00907F9EEFF07F01F3
:080FF20022E0FF7D0102127CE8
:1010BB007BFF7A0179B37D01121669E4907F03F00F
:1010CB00907F9BE054F0FFC4540FF5237D01FF127A
:1010DB00127C907F02E523F0907F9AE0FF7D011256
:1010EB00127C907F9AE0907F01F0907F99E0FF7DDA
:1010FB000112127C907F99E0120F40121669907FBB
:06110B00B57404F07F0141
:0111110022BB
:100ACE00907FB4E020E3F9907FC5E0F5237BFF7AB9
:100ADE000179CE7D011216697D01AF2312127C7B46
:100AEE00FF7A0179E77D01121669907EC3120B9B86
:100AFE00907EC2120B9B907EC1120BA2907EC012F2
:100B0E000BA27BFF7A0179ED7D01121669907EC7EB
:100B1E00120BA9907EC6120BA9907EC5E0FF7D0137
:100B2E0012127C907EC4E0FF7D0112127C7BFF7A54
:100B3E000179F27D01121669907F99E0F50A907E97
:100B4E00C0E0F509907EC4120F4D907F96E50AF035
:100B5E00907F9AE0F50A907EC1E0F509907EC5126D
:100B6E000F4D907F97E50AF0907F9BE0FFC4540FE6
:100B7E00F50A907EC2E0F509907EC6E0540F120F82
:0C0B8E004EE50AC454F0907F98F07F01FF
:100B9A0022E0FF7D0102127CE0FF7D0102127CE06F
:060BAA00FF7D0102127C38
:10065400E4F523752405120F10F50FEBF5107E7FDA
:100664007F0075127F751300E4FF1208F3E510454F
:100674000F600BD3E5109440E50F9400401A7BFF04
:100684007A0179F57D01121669120F8412175A1234
:100694000F44121669AF2322E51114602614604139
:1006A40014605E24037076AF241524EF6075120F76
:1006B40076851034AD0C7F03120407BF01E91207DD
:1006C4003AE127AF241524EF6059120F76E50EF5B1
:1006D4002985102AAD0C12145FBF01E712073A8076
:1006E40042AF241524EF603B120F76850D29850E49
:1006F4002A85102BAD0C121365BF01E51207498042
:1007040022AF241524EF601B120F76851034AD0C34
:100714007F04120407BF01E91207498006120F6023
:10072400121669E5236006907FB5E510F0120F44B8
:05073400121669AF235D
:10073900227BFF7A02790D7D011216697523012248
:0F0749007BFF7A02790D7D01121669752301225B
:10080000E4F523752505120F10F50FEBF510907F19
:10081000B4E020E3F97F011208F3907FC5E0F524EE
:10082000B51009D39440E50F9400402C7BFF7A0269
:10083000792E7D01121669120F8412175A7BFF7AE6
:100840000279507D011216697D01AF2412127C12CB
:100850000F44121669AF23227E7E7FC075147E7509
:1008600015C0E51114602614604014605B24037009
:1008700073AF251525EF6072120F7D851034AD0C16
:10088000E4FF120407BF01E9752301805DAF251560
:1008900025EF6056E50EFD120F7D85102BAF0C1273
:1008A0001401BF01E87523018040AF251525EF60D5
:1008B00039120F7D85102CAD0EAC0DAF0C12139AB2
:1008C000BF01E77523018022AF251525EF601B12BC
:1008D0000F7D851034AD0C7F01120407BF01E9754F
:1008E00023018006120F60121669120F4412166956
:0208F000AF2334
:0108F20022E3
:0208F3008F264E
:1008F5007A7E79C075270175287E7529C0E5266041
:100905000D7BFF7A0279587D01121669800B7BFFFA
:100915007A0279687D01121669E511146015146073
:10092500241460352403703C7BFF7A027977120921
:10093500D580377BFF7A02798B1209BEAF0E7D0118
:1009450012127C80257BFF7A0279A21209BE7D01F5
:10095500AF0EAE0D12175A80117BFF7A0279B612CF
:1009650009D58006120F601216697BFF7A02799EFF
:100975007D01121669120F8412175AE52660397B1C
:10098500FF7A0279C77D01121669E4F52AC3E52AC3
:100995009510E4950F50167827E475F001120315AC
:1009A5001202CCFF7D0112127C052A80E07BFF7AC2
:0809B5000279CA7D01121669E6
:1009BD00227D011216697D01AF0C12127C7BFF7A2C
:1009CD0002799E7D010216697D011216697D01AFC6
:0409DD000C02127C7A
:0317BF007F002286
:100CD900907FEEE0752300F524A3E0FFE41217CB23
:100CE900EF7011F523F524907FB5F0907FB4E030D3
:100CF900E21680F71217CBC3EF9524E49523500829
:100D09001217CB7523008F24E5244523604CC3E5D6
:100D1900249440E5239400500885232585242680C2
:100D2900067525007526407E7F7F00AA06A9077BE8
:100D390001AD26120D6B7525008F26907FB5EFF05A
:100D4900C3E5249526F524E5239525F523907FB45D
:100D5900E020E2F9E526452570AEE4907FB5F07F05
:010D69000188
:010D6A002266
:10115E002074696D656F7574310020627573790046
:10116E0020696E76616C696420706172616D657460
:10117E006572002074696D656F75743200206E6142
:10118E006B0020627573206572726F720020696E3B
:0C119E0076616C696420737461746500F4
:1016D700907FA5E04440F0227817E475F0011203EB
:0916E700151202CC907FA6F0223E
:1016BD00C2E9A20A920792F9A20A92F9E4F51AF583
:0A16CD0017F518F519F516C20822EA
:03004B000209E1C6
:1009E100C0E0C0F0C083C082C085C084C086758667
:1009F10000C0D075D000C000C001C002C003C00754
:100A0100907FA5E030E205751A018010907FA5E086
:100A110020E109E51A64066003751A02E51A24FC4F
:100A2100500D601214602014603F14606D41A812D3
:100A310016D7C2E941B01216DFAF161516EF6401E1
:100A4100706D751A078068907FA6E0AB17AA18A988
:100A5100191202E5751A06AF161516EF6401704FEB
:100A6100907FA5E04420F08046E516B40109907F0F
:100A7100A5E04420F0800DE5167009300903121637
:100A8100D7751A00907FA6E0FF7817E475F0011280
:100A91000315EF1202E5151680153009031216D75A
:100AA100751A00C2E980081216D7751A03C2E953F4
:100AB10091DFD007D003D002D001D000D0D0D086B2
:0D0AC100D084D085D082D083D0F0D0E03238
:081365008B258A2689278D28BB
:10136D00E529F52CE52AF52D7B007A00792C7534CD
:10137D00027F01120407EF6401600122AB25AA264A
:0C138D00A927852B34AD287F031204072C
:011399002231
:08139A008F268B298A2A892B7A
:1013A200ECF52DEDF52E7B007A00792D753402AD2A
:1013B200267F01120407EF6401600122AB29AA2AE9
:0C13C200A92B852C34AD267F02120407F5
:0113CE0022FC
:08145F008B258A2689278D28C0
:101467007B007A0079297534017F01120407EF6444
:1014770001600122AB25AA26A927852A34AD287F3A
:041487000312040741
:01148B00223E
:0A1401008F268D278B288A29892A5F
:10140B007B007A007927753401AD267F0112040722
:10141B00EF6401600122AB28AA29A92A852B34ADE0
:06142B00267F02120407F7
:011431002298
:100407008F2F8D308B318A3289337D147C007F02A8
:10041700121747907FA5E030E61B7F0212176DEF9A
:1004270060F1C20A1216BD7BFF7A11795E7D011257
:1004370016697FFE22E51A600E7BFF7A1179687DC7
:10044700011216697FFF22E52F64026007907FA5DE
:10045700E04480F0D2098534168531178532188536
:100467003319E52F601D14601814603014600514EB
:100477007041C209E5304401907FA6F0751A0580E6
:1004870040C209E53054FE907FA6F0E516700830AB
:100497000905751A07802A751A048025E51660056F
:1004A7001216DF1516E5167005751A078013751AEB
:1004B70004800E7BFF7A11796E7D011216697FFA2F
:1004C70022D2E97D287C007F02121747E51AD394D0
:1004D7000340207F0212176DEF60F1C20A1216BDAA
:1004E7007BFF7A1179817D011216691216D7C2E94D
:1004F7007FFE22E51A14601B146007240270257F13
:100507000122E4F51A7BFF7A11798B7D01121669B6
:100517007FFC22E4F51A7BFF7A1179907D01121690
:10052700697FFD22E4F51A7BFF7A11799B7D011221
:0505370016697FFB22A4
:0717AF007586005391EF2243
:030100000212BA2E
:1012BA00C0E0C083C082C085C084C08675860090A5
:1012CA007FE8E020E70F907FEEE07004A3E060057E
:1012DA00907FC5E4F0D2035391EF907FAB7401F095
:0D12EA00D086D084D085D082D083D0E03271
:0301040002164799
:10164700C0E0C083C082C085C084C0861217AF9037
:101657007FAB7402F0D086D084D085D082D083D07F
:02166700E0326F
:0301080002000EE4
:10000E00C0E0C083C082C085C084C0861217AF9086
:10001E007FAB7404F0D206D086D084D085D082D047
:04002E0083D0E03269
:03010C000214B426
:1014B400C0E0C083C082C085C084C086758600D267
:1014C400015391EF907FAB7408F0D086D084D0851F
:0714D400D082D083D0E0328A
:03011000021501D4
:10150100C0E0C083C082C085C084C0861217AF907E
:101511007FAB7410F0C204D206D086D084D085D0BF
:0615210082D083D0E0320D
:030114000217C20D
:0317C200D206321A
:030118000217C506
:0317C500D2063217
:03011C000217C8FF
:0317C800D2063214
:030120000215279E
:10152700C0E0C083C082C085C084C0861217AF9058
:101537007FA97402F0D206D086D084D085D082D01D
:0415470083D0E0323B
:0301240002154B76
:10154B00C0E0C083C082C085C084C0861217AF9034
:10155B007FAA7402F0D206D086D084D085D082D0F8
:04156B0083D0E03217
:0301280002156F4E
:10156F00C0E0C083C082C085C084C0861217AF9010
:10157F007FA97404F0D206D086D084D085D082D0D3
:04158F0083D0E032F3
:03012C0002159326
:10159300C0E0C083C082C085C084C0861217AF90EC
:1015A3007FAA7404F0D206D086D084D085D082D0AE
:0415B30083D0E032CF
:030130000215B7FE
:1015B700C0E0C083C082C085C084C0861217AF90C8
:1015C7007FA97408F0D206D086D084D085D082D087
:0415D70083D0E032AB
:030134000215DBD6
:1015DB00C0E0C083C082C085C084C0861217AF90A4
:1015EB007FAA7408F0D206D086D084D085D082D062
:0415FB0083D0E03287
:030138000215FFAE
:1015FF00C0E0C083C082C085C084C0861217AF9080
:10160F007FA97410F0D206D086D084D085D082D036
:04161F0083D0E03262
:03013C0002162385
:10162300C0E0C083C082C085C084C0861217AF905B
:101633007FAA7410F0D206D086D084D085D082D011
:0416430083D0E0323E
:101669008B358A368937ED700312177DAB35AA366B
:10167900A93712171EAD07AB35AA36A937020BB029
:10127C00EFC4540FFEEF540FFFEEC3940A500674E4
:10128C00302EFE800474372EFEEFC3940A50067481
:10129C00302FFF800474372FFF8E2E8F2FED7003AD
:0E12AC0012177D7B007A00792E7D02020BB0B6
:10175A008E2B8F2C8D2DE52BFF12127CAF2CAD2DED
:03176A0002127CEC
:10177D007E207F008E1B8F1C8E1D8F1EE4F51F2279
:0317CB00AF1F222B
:080BB0008B388A39893A8D3B2C
:100BB800AE1BC37400951CF53CE53BC3953C50083F
:100BC800853B3DE4F53C800A853C3DC3E53B953CCF
:100BD800F53CAF3D7E00A81CAC1B7D01AB38AA39A3
:100BE800A93A1203E1AF3D7E00EF251CF51CEE3556
:100BF8001BF51BE53C602DFD7C00C004C005AB382F
:100C0800E53A2FF9EE3539FA78007C207D01D007D6
:100C1800D0061203E17400253CF582E43420AF824B
:100C2800F51B8F1CE53B251FF51FD39400E49401A9
:0D0C38004009851B1D851C1EE4F51FAF3B08
:010C4500228C
:080D6B008B278A2889298D2AB3
:100D7300E52AD3951F4003851F2AAE1DC374009532
:100D83001EF52BE52AC3952B5008852A2CE4F52B59
:100D9300800A852B2CC3E52A952BF52BAF2C7E00DF
:100DA300AA1DA91E7B01A829AC28AD271203E1AF18
:100DB3002C7E00EF251EF51EEE351DF51DE52B607F
:100DC3002FFD7C00C004C005E5292FF9EE3528A8C6
:100DD30001FCAD277B017A207900D007D0061203EE
:100DE300E17400252BF582E43420AF82F51D8F1EBC
:090DF300C3E51F952AF51FAF2A84
:010DFC0022D4
:10007100021733E493A3F8E493A34003F68001F25B
:1000810008DFF48029E493A3F85407240CC8C33390
:10009100C4540F4420C8834004F456800146F6DF5F
:1000A100E4800B010204081020408090178DE47E4B
:1000B100019360BCA3FF543F30E509541FFEE49354
:1000C100A360010ECF54C025E060A840B8E493A31B
:1000D100FAE493A3F8E493A3C8C582C8CAC583CA46
:1000E100F0A3C8C582C8CAC583CADFE9DEE780BEFE
:011796000052
:1002CC00BB010689828A83E0225002E722BBFE0230
:0902DC00E32289828A83E4932263
:1002E500BB010689828A83F0225002F722BBFE01F8
:0202F500F322F2
:0D02F700EF2BFFEE3AFEED39FDEC38FC2256
:10030400EB9FF5F0EA9E42F0E99D42F0E89C45F04F
:0103140022C6
:10031500FAE6FB0808E6F925F0F618E6CA3AF622E9
:10171E00E4FFFE1202CC600C0FEF70010E09E970AF
:05172E00F20A80EF2229
:10032500E709F608DFFA8046E709F208DFFA803EBA
:1003350088828C83E709F0A3DFFA8032E309F608A7
:10034500DFFA806EE309F208DFFA806688828C8323
:10035500E309F0A3DFFA805A89828A83E0A3F608CD
:10036500DFFA804E89828A83E0A3F208DFFA8042B1
:1003750080D280FA80C680D4805580F28029801092
:1003850080A680EA809A80A880DA80E280CA8029E7
:1003950088848C8589828A83E493A30586F0A305E6
:1003A50086DFF5DEF3800B89828A83E493A3F60862
:1003B500DFF9ECFAA9F0EDFB2288848C8589828A25
:1003C50083E0A30586F0A30586DFF6DEF480E389E6
:1003D500828A83E493A3F208DFF980D688F0EF6080
:1003E500010E4E60CD88F0ED2402B4040050C3F533
:1003F50082EB2402B4040050B923234582239003E1
:0204050075730D
:00000001FF
